{
  "_format": "hh-sol-artifact-1",
  "contractName": "RealEstateToken",
  "sourceName": "contracts/RWATokenization.sol",
  "abi": [
    {
      "inputs": [
        {
          "internalType": "address",
          "name": "initialOwner",
          "type": "address"
        }
      ],
      "stateMutability": "nonpayable",
      "type": "constructor"
    },
    {
      "inputs": [
        {
          "internalType": "address",
          "name": "sender",
          "type": "address"
        },
        {
          "internalType": "uint256",
          "name": "balance",
          "type": "uint256"
        },
        {
          "internalType": "uint256",
          "name": "needed",
          "type": "uint256"
        },
        {
          "internalType": "uint256",
          "name": "tokenId",
          "type": "uint256"
        }
      ],
      "name": "ERC1155InsufficientBalance",
      "type": "error"
    },
    {
      "inputs": [
        {
          "internalType": "address",
          "name": "approver",
          "type": "address"
        }
      ],
      "name": "ERC1155InvalidApprover",
      "type": "error"
    },
    {
      "inputs": [
        {
          "internalType": "uint256",
          "name": "idsLength",
          "type": "uint256"
        },
        {
          "internalType": "uint256",
          "name": "valuesLength",
          "type": "uint256"
        }
      ],
      "name": "ERC1155InvalidArrayLength",
      "type": "error"
    },
    {
      "inputs": [
        {
          "internalType": "address",
          "name": "operator",
          "type": "address"
        }
      ],
      "name": "ERC1155InvalidOperator",
      "type": "error"
    },
    {
      "inputs": [
        {
          "internalType": "address",
          "name": "receiver",
          "type": "address"
        }
      ],
      "name": "ERC1155InvalidReceiver",
      "type": "error"
    },
    {
      "inputs": [
        {
          "internalType": "address",
          "name": "sender",
          "type": "address"
        }
      ],
      "name": "ERC1155InvalidSender",
      "type": "error"
    },
    {
      "inputs": [
        {
          "internalType": "address",
          "name": "operator",
          "type": "address"
        },
        {
          "internalType": "address",
          "name": "owner",
          "type": "address"
        }
      ],
      "name": "ERC1155MissingApprovalForAll",
      "type": "error"
    },
    {
      "inputs": [
        {
          "internalType": "address",
          "name": "owner",
          "type": "address"
        }
      ],
      "name": "OwnableInvalidOwner",
      "type": "error"
    },
    {
      "inputs": [
        {
          "internalType": "address",
          "name": "account",
          "type": "address"
        }
      ],
      "name": "OwnableUnauthorizedAccount",
      "type": "error"
    },
    {
      "anonymous": false,
      "inputs": [
        {
          "indexed": true,
          "internalType": "address",
          "name": "account",
          "type": "address"
        },
        {
          "indexed": true,
          "internalType": "address",
          "name": "operator",
          "type": "address"
        },
        {
          "indexed": false,
          "internalType": "bool",
          "name": "approved",
          "type": "bool"
        }
      ],
      "name": "ApprovalForAll",
      "type": "event"
    },
    {
      "anonymous": false,
      "inputs": [
        {
          "indexed": true,
          "internalType": "address",
          "name": "previousOwner",
          "type": "address"
        },
        {
          "indexed": true,
          "internalType": "address",
          "name": "newOwner",
          "type": "address"
        }
      ],
      "name": "OwnershipTransferred",
      "type": "event"
    },
    {
      "anonymous": false,
      "inputs": [
        {
          "indexed": true,
          "internalType": "uint256",
          "name": "tokenId",
          "type": "uint256"
        },
        {
          "indexed": false,
          "internalType": "uint256",
          "name": "amount",
          "type": "uint256"
        },
        {
          "indexed": true,
          "internalType": "address",
          "name": "owner",
          "type": "address"
        }
      ],
      "name": "TokenBurned",
      "type": "event"
    },
    {
      "anonymous": false,
      "inputs": [
        {
          "indexed": true,
          "internalType": "uint256",
          "name": "tokenId",
          "type": "uint256"
        },
        {
          "indexed": false,
          "internalType": "uint256",
          "name": "amount",
          "type": "uint256"
        },
        {
          "indexed": true,
          "internalType": "address",
          "name": "recipient",
          "type": "address"
        }
      ],
      "name": "TokenMinted",
      "type": "event"
    },
    {
      "anonymous": false,
      "inputs": [
        {
          "indexed": true,
          "internalType": "uint256",
          "name": "tokenId",
          "type": "uint256"
        },
        {
          "indexed": false,
          "internalType": "string",
          "name": "newURI",
          "type": "string"
        }
      ],
      "name": "TokenURIUpdated",
      "type": "event"
    },
    {
      "anonymous": false,
      "inputs": [
        {
          "indexed": true,
          "internalType": "address",
          "name": "operator",
          "type": "address"
        },
        {
          "indexed": true,
          "internalType": "address",
          "name": "from",
          "type": "address"
        },
        {
          "indexed": true,
          "internalType": "address",
          "name": "to",
          "type": "address"
        },
        {
          "indexed": false,
          "internalType": "uint256[]",
          "name": "ids",
          "type": "uint256[]"
        },
        {
          "indexed": false,
          "internalType": "uint256[]",
          "name": "values",
          "type": "uint256[]"
        }
      ],
      "name": "TransferBatch",
      "type": "event"
    },
    {
      "anonymous": false,
      "inputs": [
        {
          "indexed": true,
          "internalType": "address",
          "name": "operator",
          "type": "address"
        },
        {
          "indexed": true,
          "internalType": "address",
          "name": "from",
          "type": "address"
        },
        {
          "indexed": true,
          "internalType": "address",
          "name": "to",
          "type": "address"
        },
        {
          "indexed": false,
          "internalType": "uint256",
          "name": "id",
          "type": "uint256"
        },
        {
          "indexed": false,
          "internalType": "uint256",
          "name": "value",
          "type": "uint256"
        }
      ],
      "name": "TransferSingle",
      "type": "event"
    },
    {
      "anonymous": false,
      "inputs": [
        {
          "indexed": false,
          "internalType": "string",
          "name": "value",
          "type": "string"
        },
        {
          "indexed": true,
          "internalType": "uint256",
          "name": "id",
          "type": "uint256"
        }
      ],
      "name": "URI",
      "type": "event"
    },
    {
      "inputs": [
        {
          "internalType": "address",
          "name": "account",
          "type": "address"
        },
        {
          "internalType": "uint256",
          "name": "id",
          "type": "uint256"
        }
      ],
      "name": "balanceOf",
      "outputs": [
        {
          "internalType": "uint256",
          "name": "",
          "type": "uint256"
        }
      ],
      "stateMutability": "view",
      "type": "function"
    },
    {
      "inputs": [
        {
          "internalType": "address[]",
          "name": "accounts",
          "type": "address[]"
        },
        {
          "internalType": "uint256[]",
          "name": "ids",
          "type": "uint256[]"
        }
      ],
      "name": "balanceOfBatch",
      "outputs": [
        {
          "internalType": "uint256[]",
          "name": "",
          "type": "uint256[]"
        }
      ],
      "stateMutability": "view",
      "type": "function"
    },
    {
      "inputs": [
        {
          "internalType": "uint256",
          "name": "tokenId",
          "type": "uint256"
        },
        {
          "internalType": "uint256",
          "name": "amount",
          "type": "uint256"
        }
      ],
      "name": "burnToken",
      "outputs": [],
      "stateMutability": "nonpayable",
      "type": "function"
    },
    {
      "inputs": [
        {
          "internalType": "address",
          "name": "account",
          "type": "address"
        },
        {
          "internalType": "address",
          "name": "operator",
          "type": "address"
        }
      ],
      "name": "isApprovedForAll",
      "outputs": [
        {
          "internalType": "bool",
          "name": "",
          "type": "bool"
        }
      ],
      "stateMutability": "view",
      "type": "function"
    },
    {
      "inputs": [
        {
          "internalType": "uint256",
          "name": "amount",
          "type": "uint256"
        },
        {
          "internalType": "string",
          "name": "tokenURI",
          "type": "string"
        },
        {
          "internalType": "address",
          "name": "recipient",
          "type": "address"
        }
      ],
      "name": "mintToken",
      "outputs": [
        {
          "internalType": "uint256",
          "name": "",
          "type": "uint256"
        }
      ],
      "stateMutability": "nonpayable",
      "type": "function"
    },
    {
      "inputs": [],
      "name": "owner",
      "outputs": [
        {
          "internalType": "address",
          "name": "",
          "type": "address"
        }
      ],
      "stateMutability": "view",
      "type": "function"
    },
    {
      "inputs": [],
      "name": "renounceOwnership",
      "outputs": [],
      "stateMutability": "nonpayable",
      "type": "function"
    },
    {
      "inputs": [
        {
          "internalType": "address",
          "name": "from",
          "type": "address"
        },
        {
          "internalType": "address",
          "name": "to",
          "type": "address"
        },
        {
          "internalType": "uint256[]",
          "name": "ids",
          "type": "uint256[]"
        },
        {
          "internalType": "uint256[]",
          "name": "values",
          "type": "uint256[]"
        },
        {
          "internalType": "bytes",
          "name": "data",
          "type": "bytes"
        }
      ],
      "name": "safeBatchTransferFrom",
      "outputs": [],
      "stateMutability": "nonpayable",
      "type": "function"
    },
    {
      "inputs": [
        {
          "internalType": "address",
          "name": "from",
          "type": "address"
        },
        {
          "internalType": "address",
          "name": "to",
          "type": "address"
        },
        {
          "internalType": "uint256",
          "name": "id",
          "type": "uint256"
        },
        {
          "internalType": "uint256",
          "name": "value",
          "type": "uint256"
        },
        {
          "internalType": "bytes",
          "name": "data",
          "type": "bytes"
        }
      ],
      "name": "safeTransferFrom",
      "outputs": [],
      "stateMutability": "nonpayable",
      "type": "function"
    },
    {
      "inputs": [
        {
          "internalType": "address",
          "name": "operator",
          "type": "address"
        },
        {
          "internalType": "bool",
          "name": "approved",
          "type": "bool"
        }
      ],
      "name": "setApprovalForAll",
      "outputs": [],
      "stateMutability": "nonpayable",
      "type": "function"
    },
    {
      "inputs": [
        {
          "internalType": "string",
          "name": "newuri",
          "type": "string"
        }
      ],
      "name": "setURI",
      "outputs": [],
      "stateMutability": "nonpayable",
      "type": "function"
    },
    {
      "inputs": [
        {
          "internalType": "bytes4",
          "name": "interfaceId",
          "type": "bytes4"
        }
      ],
      "name": "supportsInterface",
      "outputs": [
        {
          "internalType": "bool",
          "name": "",
          "type": "bool"
        }
      ],
      "stateMutability": "view",
      "type": "function"
    },
    {
      "inputs": [
        {
          "internalType": "address",
          "name": "newOwner",
          "type": "address"
        }
      ],
      "name": "transferOwnership",
      "outputs": [],
      "stateMutability": "nonpayable",
      "type": "function"
    },
    {
      "inputs": [
        {
          "internalType": "uint256",
          "name": "tokenId",
          "type": "uint256"
        },
        {
          "internalType": "string",
          "name": "newURI",
          "type": "string"
        }
      ],
      "name": "updateTokenURI",
      "outputs": [],
      "stateMutability": "nonpayable",
      "type": "function"
    },
    {
      "inputs": [
        {
          "internalType": "uint256",
          "name": "tokenId",
          "type": "uint256"
        }
      ],
      "name": "uri",
      "outputs": [
        {
          "internalType": "string",
          "name": "",
          "type": "string"
        }
      ],
      "stateMutability": "view",
      "type": "function"
    }
  ],
  "bytecode": "0x60806040523480156200001157600080fd5b50604051620032723803806200327283398181016040528101906200003791906200022d565b80604051806020016040528060008152506200005981620000e860201b60201c565b50600073ffffffffffffffffffffffffffffffffffffffff168173ffffffffffffffffffffffffffffffffffffffff1603620000cf5760006040517f1e4fbdf7000000000000000000000000000000000000000000000000000000008152600401620000c6919062000270565b60405180910390fd5b620000e081620000fd60201b60201c565b5050620005ee565b8060029081620000f9919062000507565b5050565b6000600360009054906101000a900473ffffffffffffffffffffffffffffffffffffffff16905081600360006101000a81548173ffffffffffffffffffffffffffffffffffffffff021916908373ffffffffffffffffffffffffffffffffffffffff1602179055508173ffffffffffffffffffffffffffffffffffffffff168173ffffffffffffffffffffffffffffffffffffffff167f8be0079c531659141344cd1fd0a4f28419497f9722a3daafe3b4186f6b6457e060405160405180910390a35050565b600080fd5b600073ffffffffffffffffffffffffffffffffffffffff82169050919050565b6000620001f582620001c8565b9050919050565b6200020781620001e8565b81146200021357600080fd5b50565b6000815190506200022781620001fc565b92915050565b600060208284031215620002465762000245620001c3565b5b6000620002568482850162000216565b91505092915050565b6200026a81620001e8565b82525050565b60006020820190506200028760008301846200025f565b92915050565b600081519050919050565b7f4e487b7100000000000000000000000000000000000000000000000000000000600052604160045260246000fd5b7f4e487b7100000000000000000000000000000000000000000000000000000000600052602260045260246000fd5b600060028204905060018216806200030f57607f821691505b602082108103620003255762000324620002c7565b5b50919050565b60008190508160005260206000209050919050565b60006020601f8301049050919050565b600082821b905092915050565b6000600883026200038f7fffffffffffffffffffffffffffffffffffffffffffffffffffffffffffffffff8262000350565b6200039b868362000350565b95508019841693508086168417925050509392505050565b6000819050919050565b6000819050919050565b6000620003e8620003e2620003dc84620003b3565b620003bd565b620003b3565b9050919050565b6000819050919050565b6200040483620003c7565b6200041c6200041382620003ef565b8484546200035d565b825550505050565b600090565b6200043362000424565b62000440818484620003f9565b505050565b5b8181101562000468576200045c60008262000429565b60018101905062000446565b5050565b601f821115620004b75762000481816200032b565b6200048c8462000340565b810160208510156200049c578190505b620004b4620004ab8562000340565b83018262000445565b50505b505050565b600082821c905092915050565b6000620004dc60001984600802620004bc565b1980831691505092915050565b6000620004f78383620004c9565b9150826002028217905092915050565b62000512826200028d565b67ffffffffffffffff8111156200052e576200052d62000298565b5b6200053a8254620002f6565b620005478282856200046c565b600060209050601f8311600181146200057f57600084156200056a578287015190505b620005768582620004e9565b865550620005e6565b601f1984166200058f866200032b565b60005b82811015620005b95784890151825560018201915060208501945060208101905062000592565b86831015620005d95784890151620005d5601f891682620004c9565b8355505b6001600288020188555050505b505050505050565b612c7480620005fe6000396000f3fe608060405234801561001057600080fd5b50600436106100f45760003560e01c8063715018a611610097578063a22cb46511610066578063a22cb46514610281578063e985e9c51461029d578063f242432a146102cd578063f2fde38b146102e9576100f4565b8063715018a61461020d5780638225b247146102175780638da5cb5b146102335780638da69c8414610251576100f4565b80630e89341c116100d35780630e89341c1461017557806318e97fd1146101a55780632eb2c2d6146101c15780634e1273f4146101dd576100f4565b8062fdd58e146100f957806301ffc9a71461012957806302fe530514610159575b600080fd5b610113600480360381019061010e9190611aa1565b610305565b6040516101209190611af0565b60405180910390f35b610143600480360381019061013e9190611b63565b61035f565b6040516101509190611bab565b60405180910390f35b610173600480360381019061016e9190611d0c565b610441565b005b61018f600480360381019061018a9190611d55565b610455565b60405161019c9190611e01565b60405180910390f35b6101bf60048036038101906101ba9190611e23565b6104fa565b005b6101db60048036038101906101d69190611fe8565b6105a3565b005b6101f760048036038101906101f2919061217a565b61064b565b60405161020491906122b0565b60405180910390f35b610215610754565b005b610231600480360381019061022c91906122d2565b610768565b005b61023b610812565b6040516102489190612321565b60405180910390f35b61026b6004803603810190610266919061233c565b61083c565b6040516102789190611af0565b60405180910390f35b61029b600480360381019061029691906123d7565b610982565b005b6102b760048036038101906102b29190612417565b610998565b6040516102c49190611bab565b60405180910390f35b6102e760048036038101906102e29190612457565b610a2c565b005b61030360048036038101906102fe91906124ee565b610ad4565b005b600080600083815260200190815260200160002060008473ffffffffffffffffffffffffffffffffffffffff1673ffffffffffffffffffffffffffffffffffffffff16815260200190815260200160002054905092915050565b60007fd9b67a26000000000000000000000000000000000000000000000000000000007bffffffffffffffffffffffffffffffffffffffffffffffffffffffff1916827bffffffffffffffffffffffffffffffffffffffffffffffffffffffff1916148061042a57507f0e89341c000000000000000000000000000000000000000000000000000000007bffffffffffffffffffffffffffffffffffffffffffffffffffffffff1916827bffffffffffffffffffffffffffffffffffffffffffffffffffffffff1916145b8061043a575061043982610b5a565b5b9050919050565b610449610bc4565b61045281610c4b565b50565b60606004600083815260200190815260200160002080546104759061254a565b80601f01602080910402602001604051908101604052809291908181526020018280546104a19061254a565b80156104ee5780601f106104c3576101008083540402835291602001916104ee565b820191906000526020600020905b8154815290600101906020018083116104d157829003601f168201915b50505050509050919050565b610502610bc4565b6000815111610546576040517f08c379a000000000000000000000000000000000000000000000000000000000815260040161053d906125c7565b60405180910390fd5b806004600084815260200190815260200160002090816105669190612793565b50817f931f495b9a8e5d8e61946ea5d61e021f636cfe213a801f97589c18c152e408bd826040516105979190611e01565b60405180910390a25050565b60006105ad610c5e565b90508073ffffffffffffffffffffffffffffffffffffffff168673ffffffffffffffffffffffffffffffffffffffff16141580156105f257506105f08682610998565b155b156106365780866040517fe237d92200000000000000000000000000000000000000000000000000000000815260040161062d929190612865565b60405180910390fd5b6106438686868686610c66565b505050505050565b6060815183511461069757815183516040517f5b05999100000000000000000000000000000000000000000000000000000000815260040161068e92919061288e565b60405180910390fd5b6000835167ffffffffffffffff8111156106b4576106b3611be1565b5b6040519080825280602002602001820160405280156106e25781602001602082028036833780820191505090505b50905060005b84518110156107495761071f6107078287610d5e90919063ffffffff16565b61071a8387610d7290919063ffffffff16565b610305565b828281518110610732576107316128b7565b5b6020026020010181815250508060010190506106e8565b508091505092915050565b61075c610bc4565b6107666000610d86565b565b806107733384610305565b10156107b4576040517f08c379a00000000000000000000000000000000000000000000000000000000081526004016107ab90612932565b60405180910390fd5b6107bf338383610e4c565b3373ffffffffffffffffffffffffffffffffffffffff16827fc9e664acae7915e5e50a15075448bd625dd198a1075499af683f6a323c7e4c2f836040516108069190611af0565b60405180910390a35050565b6000600360009054906101000a900473ffffffffffffffffffffffffffffffffffffffff16905090565b6000610846610bc4565b60008411610889576040517f08c379a00000000000000000000000000000000000000000000000000000000081526004016108809061299e565b60405180910390fd5b60008351116108cd576040517f08c379a00000000000000000000000000000000000000000000000000000000081526004016108c4906125c7565b60405180910390fd5b60006005549050600560008154809291906108e7906129ed565b919050555061090783828760405180602001604052806000815250610ef3565b836004600083815260200190815260200160002090816109279190612793565b508273ffffffffffffffffffffffffffffffffffffffff16817ff371d67483809edbc84279729528d26a3e37ce67f1e3a911778dbf88ff927ca28760405161096f9190611af0565b60405180910390a3809150509392505050565b61099461098d610c5e565b8383610f8c565b5050565b6000600160008473ffffffffffffffffffffffffffffffffffffffff1673ffffffffffffffffffffffffffffffffffffffff16815260200190815260200160002060008373ffffffffffffffffffffffffffffffffffffffff1673ffffffffffffffffffffffffffffffffffffffff16815260200190815260200160002060009054906101000a900460ff16905092915050565b6000610a36610c5e565b90508073ffffffffffffffffffffffffffffffffffffffff168673ffffffffffffffffffffffffffffffffffffffff1614158015610a7b5750610a798682610998565b155b15610abf5780866040517fe237d922000000000000000000000000000000000000000000000000000000008152600401610ab6929190612865565b60405180910390fd5b610acc86868686866110fc565b505050505050565b610adc610bc4565b600073ffffffffffffffffffffffffffffffffffffffff168173ffffffffffffffffffffffffffffffffffffffff1603610b4e5760006040517f1e4fbdf7000000000000000000000000000000000000000000000000000000008152600401610b459190612321565b60405180910390fd5b610b5781610d86565b50565b60007f01ffc9a7000000000000000000000000000000000000000000000000000000007bffffffffffffffffffffffffffffffffffffffffffffffffffffffff1916827bffffffffffffffffffffffffffffffffffffffffffffffffffffffff1916149050919050565b610bcc610c5e565b73ffffffffffffffffffffffffffffffffffffffff16610bea610812565b73ffffffffffffffffffffffffffffffffffffffff1614610c4957610c0d610c5e565b6040517f118cdaa7000000000000000000000000000000000000000000000000000000008152600401610c409190612321565b60405180910390fd5b565b8060029081610c5a9190612793565b5050565b600033905090565b600073ffffffffffffffffffffffffffffffffffffffff168473ffffffffffffffffffffffffffffffffffffffff1603610cd85760006040517f57f447ce000000000000000000000000000000000000000000000000000000008152600401610ccf9190612321565b60405180910390fd5b600073ffffffffffffffffffffffffffffffffffffffff168573ffffffffffffffffffffffffffffffffffffffff1603610d4a5760006040517f01a83514000000000000000000000000000000000000000000000000000000008152600401610d419190612321565b60405180910390fd5b610d578585858585611207565b5050505050565b600060208202602084010151905092915050565b600060208202602084010151905092915050565b6000600360009054906101000a900473ffffffffffffffffffffffffffffffffffffffff16905081600360006101000a81548173ffffffffffffffffffffffffffffffffffffffff021916908373ffffffffffffffffffffffffffffffffffffffff1602179055508173ffffffffffffffffffffffffffffffffffffffff168173ffffffffffffffffffffffffffffffffffffffff167f8be0079c531659141344cd1fd0a4f28419497f9722a3daafe3b4186f6b6457e060405160405180910390a35050565b600073ffffffffffffffffffffffffffffffffffffffff168373ffffffffffffffffffffffffffffffffffffffff1603610ebe5760006040517f01a83514000000000000000000000000000000000000000000000000000000008152600401610eb59190612321565b60405180910390fd5b600080610ecb84846112b9565b91509150610eec856000848460405180602001604052806000815250611207565b5050505050565b600073ffffffffffffffffffffffffffffffffffffffff168473ffffffffffffffffffffffffffffffffffffffff1603610f655760006040517f57f447ce000000000000000000000000000000000000000000000000000000008152600401610f5c9190612321565b60405180910390fd5b600080610f7285856112b9565b91509150610f84600087848487611207565b505050505050565b600073ffffffffffffffffffffffffffffffffffffffff168273ffffffffffffffffffffffffffffffffffffffff1603610ffe5760006040517fced3e100000000000000000000000000000000000000000000000000000000008152600401610ff59190612321565b60405180910390fd5b80600160008573ffffffffffffffffffffffffffffffffffffffff1673ffffffffffffffffffffffffffffffffffffffff16815260200190815260200160002060008473ffffffffffffffffffffffffffffffffffffffff1673ffffffffffffffffffffffffffffffffffffffff16815260200190815260200160002060006101000a81548160ff0219169083151502179055508173ffffffffffffffffffffffffffffffffffffffff168373ffffffffffffffffffffffffffffffffffffffff167f17307eab39ab6107e8899845ad3d59bd9653f200f220920489ca2b5937696c31836040516110ef9190611bab565b60405180910390a3505050565b600073ffffffffffffffffffffffffffffffffffffffff168473ffffffffffffffffffffffffffffffffffffffff160361116e5760006040517f57f447ce0000000000000000000000000000000000000000000000000000000081526004016111659190612321565b60405180910390fd5b600073ffffffffffffffffffffffffffffffffffffffff168573ffffffffffffffffffffffffffffffffffffffff16036111e05760006040517f01a835140000000000000000000000000000000000000000000000000000000081526004016111d79190612321565b60405180910390fd5b6000806111ed85856112b9565b915091506111fe8787848487611207565b50505050505050565b611213858585856112e9565b600073ffffffffffffffffffffffffffffffffffffffff168473ffffffffffffffffffffffffffffffffffffffff16146112b2576000611251610c5e565b905060018451036112a1576000611272600086610d7290919063ffffffff16565b9050600061128a600086610d7290919063ffffffff16565b905061129a838989858589611691565b50506112b0565b6112af818787878787611845565b5b505b5050505050565b60608060405191506001825283602083015260408201905060018152826020820152604081016040529250929050565b805182511461133357815181516040517f5b05999100000000000000000000000000000000000000000000000000000000815260040161132a92919061288e565b60405180910390fd5b600061133d610c5e565b905060005b835181101561154c5760006113608286610d7290919063ffffffff16565b905060006113778386610d7290919063ffffffff16565b9050600073ffffffffffffffffffffffffffffffffffffffff168873ffffffffffffffffffffffffffffffffffffffff16146114a457600080600084815260200190815260200160002060008a73ffffffffffffffffffffffffffffffffffffffff1673ffffffffffffffffffffffffffffffffffffffff1681526020019081526020016000205490508181101561144c57888183856040517f03dee4c50000000000000000000000000000000000000000000000000000000081526004016114439493929190612a35565b60405180910390fd5b81810360008085815260200190815260200160002060008b73ffffffffffffffffffffffffffffffffffffffff1673ffffffffffffffffffffffffffffffffffffffff16815260200190815260200160002081905550505b600073ffffffffffffffffffffffffffffffffffffffff168773ffffffffffffffffffffffffffffffffffffffff161461153f578060008084815260200190815260200160002060008973ffffffffffffffffffffffffffffffffffffffff1673ffffffffffffffffffffffffffffffffffffffff16815260200190815260200160002060008282546115379190612a7a565b925050819055505b5050806001019050611342565b50600183510361160b57600061156c600085610d7290919063ffffffff16565b90506000611584600085610d7290919063ffffffff16565b90508573ffffffffffffffffffffffffffffffffffffffff168773ffffffffffffffffffffffffffffffffffffffff168473ffffffffffffffffffffffffffffffffffffffff167fc3d58168c5ae7397731d063d5bbf3d657854427343f4c083240f7aacaa2d0f6285856040516115fc92919061288e565b60405180910390a4505061168a565b8373ffffffffffffffffffffffffffffffffffffffff168573ffffffffffffffffffffffffffffffffffffffff168273ffffffffffffffffffffffffffffffffffffffff167f4a39dc06d4c0dbc64b70af90fd698a233a518aa5d07e595d983b8c0526c8f7fb8686604051611681929190612aae565b60405180910390a45b5050505050565b60008473ffffffffffffffffffffffffffffffffffffffff163b111561183d578373ffffffffffffffffffffffffffffffffffffffff1663f23a6e6187878686866040518663ffffffff1660e01b81526004016116f2959493929190612b3a565b6020604051808303816000875af192505050801561172e57506040513d601f19601f8201168201806040525081019061172b9190612ba9565b60015b6117b2573d806000811461175e576040519150601f19603f3d011682016040523d82523d6000602084013e611763565b606091505b5060008151036117aa57846040517f57f447ce0000000000000000000000000000000000000000000000000000000081526004016117a19190612321565b60405180910390fd5b805181602001fd5b63f23a6e6160e01b7bffffffffffffffffffffffffffffffffffffffffffffffffffffffff1916817bffffffffffffffffffffffffffffffffffffffffffffffffffffffff19161461183b57846040517f57f447ce0000000000000000000000000000000000000000000000000000000081526004016118329190612321565b60405180910390fd5b505b505050505050565b60008473ffffffffffffffffffffffffffffffffffffffff163b11156119f1578373ffffffffffffffffffffffffffffffffffffffff1663bc197c8187878686866040518663ffffffff1660e01b81526004016118a6959493929190612bd6565b6020604051808303816000875af19250505080156118e257506040513d601f19601f820116820180604052508101906118df9190612ba9565b60015b611966573d8060008114611912576040519150601f19603f3d011682016040523d82523d6000602084013e611917565b606091505b50600081510361195e57846040517f57f447ce0000000000000000000000000000000000000000000000000000000081526004016119559190612321565b60405180910390fd5b805181602001fd5b63bc197c8160e01b7bffffffffffffffffffffffffffffffffffffffffffffffffffffffff1916817bffffffffffffffffffffffffffffffffffffffffffffffffffffffff1916146119ef57846040517f57f447ce0000000000000000000000000000000000000000000000000000000081526004016119e69190612321565b60405180910390fd5b505b505050505050565b6000604051905090565b600080fd5b600080fd5b600073ffffffffffffffffffffffffffffffffffffffff82169050919050565b6000611a3882611a0d565b9050919050565b611a4881611a2d565b8114611a5357600080fd5b50565b600081359050611a6581611a3f565b92915050565b6000819050919050565b611a7e81611a6b565b8114611a8957600080fd5b50565b600081359050611a9b81611a75565b92915050565b60008060408385031215611ab857611ab7611a03565b5b6000611ac685828601611a56565b9250506020611ad785828601611a8c565b9150509250929050565b611aea81611a6b565b82525050565b6000602082019050611b056000830184611ae1565b92915050565b60007fffffffff0000000000000000000000000000000000000000000000000000000082169050919050565b611b4081611b0b565b8114611b4b57600080fd5b50565b600081359050611b5d81611b37565b92915050565b600060208284031215611b7957611b78611a03565b5b6000611b8784828501611b4e565b91505092915050565b60008115159050919050565b611ba581611b90565b82525050565b6000602082019050611bc06000830184611b9c565b92915050565b600080fd5b600080fd5b6000601f19601f8301169050919050565b7f4e487b7100000000000000000000000000000000000000000000000000000000600052604160045260246000fd5b611c1982611bd0565b810181811067ffffffffffffffff82111715611c3857611c37611be1565b5b80604052505050565b6000611c4b6119f9565b9050611c578282611c10565b919050565b600067ffffffffffffffff821115611c7757611c76611be1565b5b611c8082611bd0565b9050602081019050919050565b82818337600083830152505050565b6000611caf611caa84611c5c565b611c41565b905082815260208101848484011115611ccb57611cca611bcb565b5b611cd6848285611c8d565b509392505050565b600082601f830112611cf357611cf2611bc6565b5b8135611d03848260208601611c9c565b91505092915050565b600060208284031215611d2257611d21611a03565b5b600082013567ffffffffffffffff811115611d4057611d3f611a08565b5b611d4c84828501611cde565b91505092915050565b600060208284031215611d6b57611d6a611a03565b5b6000611d7984828501611a8c565b91505092915050565b600081519050919050565b600082825260208201905092915050565b60005b83811015611dbc578082015181840152602081019050611da1565b60008484015250505050565b6000611dd382611d82565b611ddd8185611d8d565b9350611ded818560208601611d9e565b611df681611bd0565b840191505092915050565b60006020820190508181036000830152611e1b8184611dc8565b905092915050565b60008060408385031215611e3a57611e39611a03565b5b6000611e4885828601611a8c565b925050602083013567ffffffffffffffff811115611e6957611e68611a08565b5b611e7585828601611cde565b9150509250929050565b600067ffffffffffffffff821115611e9a57611e99611be1565b5b602082029050602081019050919050565b600080fd5b6000611ec3611ebe84611e7f565b611c41565b90508083825260208201905060208402830185811115611ee657611ee5611eab565b5b835b81811015611f0f5780611efb8882611a8c565b845260208401935050602081019050611ee8565b5050509392505050565b600082601f830112611f2e57611f2d611bc6565b5b8135611f3e848260208601611eb0565b91505092915050565b600067ffffffffffffffff821115611f6257611f61611be1565b5b611f6b82611bd0565b9050602081019050919050565b6000611f8b611f8684611f47565b611c41565b905082815260208101848484011115611fa757611fa6611bcb565b5b611fb2848285611c8d565b509392505050565b600082601f830112611fcf57611fce611bc6565b5b8135611fdf848260208601611f78565b91505092915050565b600080600080600060a0868803121561200457612003611a03565b5b600061201288828901611a56565b955050602061202388828901611a56565b945050604086013567ffffffffffffffff81111561204457612043611a08565b5b61205088828901611f19565b935050606086013567ffffffffffffffff81111561207157612070611a08565b5b61207d88828901611f19565b925050608086013567ffffffffffffffff81111561209e5761209d611a08565b5b6120aa88828901611fba565b9150509295509295909350565b600067ffffffffffffffff8211156120d2576120d1611be1565b5b602082029050602081019050919050565b60006120f66120f1846120b7565b611c41565b9050808382526020820190506020840283018581111561211957612118611eab565b5b835b81811015612142578061212e8882611a56565b84526020840193505060208101905061211b565b5050509392505050565b600082601f83011261216157612160611bc6565b5b81356121718482602086016120e3565b91505092915050565b6000806040838503121561219157612190611a03565b5b600083013567ffffffffffffffff8111156121af576121ae611a08565b5b6121bb8582860161214c565b925050602083013567ffffffffffffffff8111156121dc576121db611a08565b5b6121e885828601611f19565b9150509250929050565b600081519050919050565b600082825260208201905092915050565b6000819050602082019050919050565b61222781611a6b565b82525050565b6000612239838361221e565b60208301905092915050565b6000602082019050919050565b600061225d826121f2565b61226781856121fd565b93506122728361220e565b8060005b838110156122a357815161228a888261222d565b975061229583612245565b925050600181019050612276565b5085935050505092915050565b600060208201905081810360008301526122ca8184612252565b905092915050565b600080604083850312156122e9576122e8611a03565b5b60006122f785828601611a8c565b925050602061230885828601611a8c565b9150509250929050565b61231b81611a2d565b82525050565b60006020820190506123366000830184612312565b92915050565b60008060006060848603121561235557612354611a03565b5b600061236386828701611a8c565b935050602084013567ffffffffffffffff81111561238457612383611a08565b5b61239086828701611cde565b92505060406123a186828701611a56565b9150509250925092565b6123b481611b90565b81146123bf57600080fd5b50565b6000813590506123d1816123ab565b92915050565b600080604083850312156123ee576123ed611a03565b5b60006123fc85828601611a56565b925050602061240d858286016123c2565b9150509250929050565b6000806040838503121561242e5761242d611a03565b5b600061243c85828601611a56565b925050602061244d85828601611a56565b9150509250929050565b600080600080600060a0868803121561247357612472611a03565b5b600061248188828901611a56565b955050602061249288828901611a56565b94505060406124a388828901611a8c565b93505060606124b488828901611a8c565b925050608086013567ffffffffffffffff8111156124d5576124d4611a08565b5b6124e188828901611fba565b9150509295509295909350565b60006020828403121561250457612503611a03565b5b600061251284828501611a56565b91505092915050565b7f4e487b7100000000000000000000000000000000000000000000000000000000600052602260045260246000fd5b6000600282049050600182168061256257607f821691505b6020821081036125755761257461251b565b5b50919050565b7f5552492063616e6e6f7420626520656d70747900000000000000000000000000600082015250565b60006125b1601383611d8d565b91506125bc8261257b565b602082019050919050565b600060208201905081810360008301526125e0816125a4565b9050919050565b60008190508160005260206000209050919050565b60006020601f8301049050919050565b600082821b905092915050565b6000600883026126497fffffffffffffffffffffffffffffffffffffffffffffffffffffffffffffffff8261260c565b612653868361260c565b95508019841693508086168417925050509392505050565b6000819050919050565b600061269061268b61268684611a6b565b61266b565b611a6b565b9050919050565b6000819050919050565b6126aa83612675565b6126be6126b682612697565b848454612619565b825550505050565b600090565b6126d36126c6565b6126de8184846126a1565b505050565b5b81811015612702576126f76000826126cb565b6001810190506126e4565b5050565b601f82111561274757612718816125e7565b612721846125fc565b81016020851015612730578190505b61274461273c856125fc565b8301826126e3565b50505b505050565b600082821c905092915050565b600061276a6000198460080261274c565b1980831691505092915050565b60006127838383612759565b9150826002028217905092915050565b61279c82611d82565b67ffffffffffffffff8111156127b5576127b4611be1565b5b6127bf825461254a565b6127ca828285612706565b600060209050601f8311600181146127fd57600084156127eb578287015190505b6127f58582612777565b86555061285d565b601f19841661280b866125e7565b60005b828110156128335784890151825560018201915060208501945060208101905061280e565b86831015612850578489015161284c601f891682612759565b8355505b6001600288020188555050505b505050505050565b600060408201905061287a6000830185612312565b6128876020830184612312565b9392505050565b60006040820190506128a36000830185611ae1565b6128b06020830184611ae1565b9392505050565b7f4e487b7100000000000000000000000000000000000000000000000000000000600052603260045260246000fd5b7f496e73756666696369656e742062616c616e636520746f206275726e00000000600082015250565b600061291c601c83611d8d565b9150612927826128e6565b602082019050919050565b6000602082019050818103600083015261294b8161290f565b9050919050565b7f416d6f756e74206d7573742062652067726561746572207468616e207a65726f600082015250565b6000612988602083611d8d565b915061299382612952565b602082019050919050565b600060208201905081810360008301526129b78161297b565b9050919050565b7f4e487b7100000000000000000000000000000000000000000000000000000000600052601160045260246000fd5b60006129f882611a6b565b91507fffffffffffffffffffffffffffffffffffffffffffffffffffffffffffffffff8203612a2a57612a296129be565b5b600182019050919050565b6000608082019050612a4a6000830187612312565b612a576020830186611ae1565b612a646040830185611ae1565b612a716060830184611ae1565b95945050505050565b6000612a8582611a6b565b9150612a9083611a6b565b9250828201905080821115612aa857612aa76129be565b5b92915050565b60006040820190508181036000830152612ac88185612252565b90508181036020830152612adc8184612252565b90509392505050565b600081519050919050565b600082825260208201905092915050565b6000612b0c82612ae5565b612b168185612af0565b9350612b26818560208601611d9e565b612b2f81611bd0565b840191505092915050565b600060a082019050612b4f6000830188612312565b612b5c6020830187612312565b612b696040830186611ae1565b612b766060830185611ae1565b8181036080830152612b888184612b01565b90509695505050505050565b600081519050612ba381611b37565b92915050565b600060208284031215612bbf57612bbe611a03565b5b6000612bcd84828501612b94565b91505092915050565b600060a082019050612beb6000830188612312565b612bf86020830187612312565b8181036040830152612c0a8186612252565b90508181036060830152612c1e8185612252565b90508181036080830152612c328184612b01565b9050969550505050505056fea2646970667358221220bf2241871c8058d9485e039e699a60761abfbbffa7d2e649b4bbe3528c6ffc1164736f6c63430008160033",
  "linkReferences": {},
  "deployedLinkReferences": {}
}